:03000000020D9A54
:0C0D9A00787FE4F6D8FD75811602080091
:100A6300494E495449414C4953494E472E2E2E2E47
:100A73000047534D204143434944454E5420444588
:100A83005400564942524154494F4E3A4E4F005634
:100A93004942524154494F4E204445544543540022
:100AA300564942524154494F4E3A594553005345D2
:100AB3004E44494E47204D53472E2E2E2E2E00379F
:100AC30032333139333935353600414343494445AF
:100AD3004E54204445544543544544003730313641
:100AE30039353836343400393533323731353136E8
:100AF30038004143434944454E54444554454354C7
:100B0300454400204D534753454E54200043414C28
:100B13004C494E472E2E2E2E2E2E2E2E2E00415475
:100B230041542B434D47463D3141542B434D47538D
:100B33003D4154444154480038000C000100060074
:010B43008031
:100BFE008B0A8A0B890CE4F516C3E51694027480F1
:100C0E0094805007120D7C051680EE7F0D120D8319
:100C1E00120D24E4F516C3E51694097480948050E1
:100C2E000A900B23120D7F051680EB7F0D120D839C
:100C3E00120D24E4F516C3E51694087480948050C2
:100C4E000EE516900B2C93FF120D83051680E77F91
:100C5E0022120D83AB0AAA0BA90C120A4AFF6010CE
:100C6E00120D837401250CF50CE4350BF50B80E4A5
:100C7E007F22120D837F0D120D83120D24AB0DAA50
:100C8E000EA90F120A4AFF6010120D837401250F70
:100C9E00F50FE4350EF50E80E47F1A120D837F50AA
:050CAE007E00020D288C
:100B44008B0A8A0B890CE4F516C3E51694027480AB
:100B540094805007120D7C051680EE7F0D120D83D4
:100B6400120D24E4F516C3E516940974809480509C
:100B74000EE516900B2393FF120D83051680E77F75
:100B84000D120D83120D24E4F516C3E516940374B7
:100B9400809480500EE516900B3493FF120D83055C
:100BA4001680E7AB0AAA0BA90C120A4AFF601012BE
:100BB4000D837401250CF50CE4350BF50B80E47FF3
:100BC4003B120D837F0D120D837F507E00120D2882
:100BD4007F587E02120D28E4F516C3E516940374BB
:100BE400809480500EE516900B3793FF120D830509
:0A0BF4001680E77F507E00020D28F6
:040D24007F3C7E0092
:100D2800E4FDFCD3ED9FEC9E5017758921758C4B23
:100D3800758AFDD28C308DFDC28D0DBD00010C80F1
:010D4800E2C8
:010D49002287
:070D7C00900B21E51693FF27
:080D8300C2998F993099FD22FD
:0F0D8B00759850758921758DFD758BFDD28E225F
:100CB300780C7C007D007BFF7A0B793A7E007F0AFB
:100CC300120A24E4F50AF50BE50B25E0240CF808D9
:100CD300E6FF120D4AE4FFFE0FBF00010EBE04F84B
:100CE300BFB0F5050BE50B7002050AD39404E50AC2
:040CF300940040D455
:010CF70022DA
:100D4A008F90C2A0C2A1D2A2E4FFFE0FBF00010E83
:080D5A00BE04F8BFB0F5C2A20F
:010D6200226E
:100D63008F90D2A0C2A1D2A2E4FFFE0FBF00010E5A
:080D7300BE04F8BFB0F5C2A2F6
:010D7B002255
:0B0CF8007F80120D4A7BFF7A0A79749E
:100D0300120A4AFF601A120D63E4FFFE0FBF0001CF
:100D13000EBE04F8BFB0F5740129F9E43AFA80E095
:010D230022AD
:10080000120D8B120CB37F80120D4A7BFF7A0A798E
:1008100063120D03E4F508F5090509E50970020501
:1008200008B410F5E508B427F0120CF87FC0120DDB
:100830004A7A0A7985120D03C28020B20302094167
:10084000D2807F80120D4A7BFF7A0A7992120D03C3
:100850007FC0120D4A7A0A79A3120D03E4F508F558
:10086000090509E50970020508B430F5E508B47515
:10087000F0E4F508F5090509E50970020508B4304A
:10088000F5E508B475F07F80120D4A7BFF7A0A798E
:10089000B1120D038B0D750E0A750FCD7A0A79C250
:1008A000120BFE750DFF750E0A750FCD7BFF7A0AD0
:1008B00079DF120BFE750DFF750E0A750FF57BFFC4
:1008C0007A0A79EA120BFE7FC0120D4A7BFF7A0B7F
:1008D0007906120D03E4F508F5090509E50970022A
:1008E0000508B430F5E508B475F0E4F508F5090538
:1008F00009E50970020508B430F5E508B475F0E4BF
:10090000F508F5090509E50970020508B430F5E5B3
:1009100008B475F07F80120D4A7BFF7A0B791012B4
:100920000D037A0A79C2120B447BFF7A0A79DF122F
:100930000B447BFF7A0A79EA120B44120CF8020886
:100940003AC2807FC0120D4A7BFF7A0A7985120D68
:040950000302083A5C
:10095400E709F608DFFA8046E709F208DFFA803E85
:1009640088828C83E709F0A3DFFA8032E309F60872
:10097400DFFA8078E309F208DFFA807088828C83DA
:10098400E309F0A3DFFA806489828A83E0A3F6088E
:10099400DFFA805889828A83E0A3F208DFFA804C68
:1009A40080D280FA80C680D4806980F2803380103F
:1009B40080A680EA809A80A880DA80E280CA8033A8
:1009C40089828A83ECFAE493A3C8C582C8CCC58320
:1009D400CCF0A3C8C582C8CCC583CCDFE9DEE780F0
:1009E4000D89828A83E493A3F608DFF9ECFAA9F06F
:1009F400EDFB2289828A83ECFAE0A3C8C582C8CCC5
:100A0400C583CCF0A3C8C582C8CCC583CCDFEADEDD
:100A1400E880DB89828A83E493A3F208DFF980CC3F
:100A240088F0EF60010E4E60C388F0ED2402B40438
:100A34000050B9F582EB2402B4040050AF232345DF
:060A440082239009A47357
:100A4A00BB010689828A83E0225002E722BBFE02AA
:090A5A00E32289828A83E49322DD
:00000001FF
